{"contracts/LendingHelper.sol":{"LendingHelper":{"abi":[{"inputs":[{"internalType":"address","name":"_addressToTokenMap","type":"address"},{"internalType":"address","name":"_lendingConfig","type":"address"}],"stateMutability":"nonpayable","type":"constructor"},{"inputs":[{"internalType":"address","name":"_token","type":"address"},{"internalType":"uint256","name":"_amount","type":"uint256"}],"name":"getAmountInUSD","outputs":[{"internalType":"uint256","name":"","type":"uint256"}],"stateMutability":"view","type":"function"},{"inputs":[{"internalType":"address","name":"_tokenAddress","type":"address"}],"name":"getCurrentTokenPrice","outputs":[{"internalType":"uint256","name":"","type":"uint256"}],"stateMutability":"view","type":"function"},{"inputs":[{"internalType":"string","name":"symbol","type":"string"}],"name":"getKeccackHash","outputs":[{"internalType":"bytes32","name":"","type":"bytes32"}],"stateMutability":"pure","type":"function"},{"inputs":[{"internalType":"address","name":"_address","type":"address"},{"internalType":"address","name":"_token","type":"address"}],"name":"getTokenBalance","outputs":[{"internalType":"uint256","name":"","type":"uint256"}],"stateMutability":"view","type":"function"},{"inputs":[{"internalType":"address","name":"_token","type":"address"},{"internalType":"uint256","name":"_usdAmount","type":"uint256"}],"name":"getTokensPerUSDAmount","outputs":[{"internalType":"uint256","name":"","type":"uint256"}],"stateMutability":"view","type":"function"},{"inputs":[{"internalType":"uint256","name":"x","type":"uint256"},{"internalType":"uint256","name":"y","type":"uint256"}],"name":"max","outputs":[{"internalType":"uint256","name":"","type":"uint256"}],"stateMutability":"pure","type":"function"},{"inputs":[{"internalType":"uint256","name":"x","type":"uint256"},{"internalType":"uint256","name":"y","type":"uint256"}],"name":"min","outputs":[{"internalType":"uint256","name":"","type":"uint256"}],"stateMutability":"pure","type":"function"},{"inputs":[{"internalType":"uint256","name":"startTimeStamp","type":"uint256"},{"internalType":"uint256","name":"totalTokenSupply","type":"uint256"}],"name":"rewardPerToken","outputs":[{"internalType":"uint256","name":"","type":"uint256"}],"stateMutability":"view","type":"function"}],"evm":{"bytecode":{"linkReferences":{},"object":"608060405234801561001057600080fd5b5060405161087d38038061087d83398101604081905261002f9161007c565b600080546001600160a01b039384166001600160a01b031991821617909155600180549290931691161790556100af565b80516001600160a01b038116811461007757600080fd5b919050565b6000806040838503121561008f57600080fd5b61009883610060565b91506100a660208401610060565b90509250929050565b6107bf806100be6000396000f3fe608060405234801561001057600080fd5b50600436106100885760003560e01c80637ae2b5c71161005b5780637ae2b5c7146100f15780639390f68014610104578063c489744b14610117578063d93412f41461012a57600080fd5b806309f72da31461008d5780630c95c2ce146100b257806325d07a95146100cb5780636d5433e6146100de575b600080fd5b6100a061009b3660046104e2565b61013d565b60405190815260200160405180910390f35b6100a06100c036600461055a565b805160209091012090565b6100a06100d9366004610530565b610302565b6100a06100ec36600461068a565b610334565b6100a06100ff36600461068a565b61034d565b6100a0610112366004610530565b61035d565b6100a06101253660046104fd565b610372565b6100a061013836600461068a565b6103ef565b600080546040516364d9729160e11b81526001600160a01b03848116600483015283926101c49291169063c9b2e5229060240160006040518083038186803b15801561018857600080fd5b505afa15801561019c573d6000803e3d6000fd5b505050506040513d6000823e601f3d908101601f191682016040526100c091908101906105da565b60408051808201909152600381526208aa8960eb1b60209091015290507faaaebeba3810b1e6b70781f14b2d72c1cb89c0b2b320c43bb67ff79f562f5ff481141561021357506106bd92915050565b60408051808201909152600381526244414960e81b6020909101527fa5e92f3efb6826155f1f728e162af9d7cda33a574a1153b58f03ea01cc37e56881141561025f5750600192915050565b6040805180820190915260048152635553444360e01b6020909101527fd6aca1be9729c13d677335161321649cccae6a591554772516700f986f942eaa8114156102ac5750600192915050565b6040805180820190915260048152634c494e4b60e01b6020909101527f921a3539bcb764c889432630877414523e7fbca00c211bc787aeae69e2e3a7798114156102f95750600692915050565b50600192915050565b600080610317670de0b6b3a764000084610705565b6103208561013d565b61032a9190610727565b9150505b92915050565b6000818310156103445781610346565b825b9392505050565b6000818311156103445781610346565b60006103688361013d565b6103469083610705565b6040516370a0823160e01b81526001600160a01b038381166004830152600091908316906370a082319060240160206040518083038186803b1580156103b757600080fd5b505afa1580156103cb573d6000803e3d6000fd5b505050506040513d601f19601f820116820180604052508101906103469190610671565b6000816103fe5750600061032e565b600061040a8442610746565b90506000600160009054906101000a90046001600160a01b03166001600160a01b0316635b72a33a6040518163ffffffff1660e01b815260040160206040518083038186803b15801561045c57600080fd5b505afa158015610470573d6000803e3d6000fd5b505050506040513d601f19601f820116820180604052508101906104949190610671565b9050836104a18284610727565b6104b390670de0b6b3a7640000610727565b6104bd9190610705565b95945050505050565b80356001600160a01b03811681146104dd57600080fd5b919050565b6000602082840312156104f457600080fd5b610346826104c6565b6000806040838503121561051057600080fd5b610519836104c6565b9150610527602084016104c6565b90509250929050565b6000806040838503121561054357600080fd5b61054c836104c6565b946020939093013593505050565b60006020828403121561056c57600080fd5b813567ffffffffffffffff81111561058357600080fd5b8201601f8101841361059457600080fd5b80356105a76105a2826106dd565b6106ac565b8181528560208385010111156105bc57600080fd5b81602084016020830137600091810160200191909152949350505050565b600060208083850312156105ed57600080fd5b825167ffffffffffffffff81111561060457600080fd5b8301601f8101851361061557600080fd5b80516106236105a2826106dd565b818152868483850101111561063757600080fd5b60005b8281101561065557838101850151828201860152840161063a565b828111156106665760008584840101525b509695505050505050565b60006020828403121561068357600080fd5b5051919050565b6000806040838503121561069d57600080fd5b50508035926020909101359150565b604051601f8201601f1916810167ffffffffffffffff811182821017156106d5576106d5610773565b604052919050565b600067ffffffffffffffff8211156106f7576106f7610773565b50601f01601f191660200190565b60008261072257634e487b7160e01b600052601260045260246000fd5b500490565b60008160001904831182151516156107415761074161075d565b500290565b6000828210156107585761075861075d565b500390565b634e487b7160e01b600052601160045260246000fd5b634e487b7160e01b600052604160045260246000fdfea2646970667358221220b081cefd01e71f258286d1bd337d3f41bbb95e4788cb932ba7cca3f702457d5a64736f6c63430008060033","opcodes":"PUSH1 0x80 PUSH1 0x40 MSTORE CALLVALUE DUP1 ISZERO PUSH2 0x10 JUMPI PUSH1 0x0 DUP1 REVERT JUMPDEST POP PUSH1 0x40 MLOAD PUSH2 0x87D CODESIZE SUB DUP1 PUSH2 0x87D DUP4 CODECOPY DUP2 ADD PUSH1 0x40 DUP2 SWAP1 MSTORE PUSH2 0x2F SWAP2 PUSH2 0x7C JUMP JUMPDEST PUSH1 0x0 DUP1 SLOAD PUSH1 0x1 PUSH1 0x1 PUSH1 0xA0 SHL SUB SWAP4 DUP5 AND PUSH1 0x1 PUSH1 0x1 PUSH1 0xA0 SHL SUB NOT SWAP2 DUP3 AND OR SWAP1 SWAP2 SSTORE PUSH1 0x1 DUP1 SLOAD SWAP3 SWAP1 SWAP4 AND SWAP2 AND OR SWAP1 SSTORE PUSH2 0xAF JUMP JUMPDEST DUP1 MLOAD PUSH1 0x1 PUSH1 0x1 PUSH1 0xA0 SHL SUB DUP2 AND DUP2 EQ PUSH2 0x77 JUMPI PUSH1 0x0 DUP1 REVERT JUMPDEST SWAP2 SWAP1 POP JUMP JUMPDEST PUSH1 0x0 DUP1 PUSH1 0x40 DUP4 DUP6 SUB SLT ISZERO PUSH2 0x8F JUMPI PUSH1 0x0 DUP1 REVERT JUMPDEST PUSH2 0x98 DUP4 PUSH2 0x60 JUMP JUMPDEST SWAP2 POP PUSH2 0xA6 PUSH1 0x20 DUP5 ADD PUSH2 0x60 JUMP JUMPDEST SWAP1 POP SWAP3 POP SWAP3 SWAP1 POP JUMP JUMPDEST PUSH2 0x7BF DUP1 PUSH2 0xBE PUSH1 0x0 CODECOPY PUSH1 0x0 RETURN INVALID PUSH1 0x80 PUSH1 0x40 MSTORE CALLVALUE DUP1 ISZERO PUSH2 0x10 JUMPI PUSH1 0x0 DUP1 REVERT JUMPDEST POP PUSH1 0x4 CALLDATASIZE LT PUSH2 0x88 JUMPI PUSH1 0x0 CALLDATALOAD PUSH1 0xE0 SHR DUP1 PUSH4 0x7AE2B5C7 GT PUSH2 0x5B JUMPI DUP1 PUSH4 0x7AE2B5C7 EQ PUSH2 0xF1 JUMPI DUP1 PUSH4 0x9390F680 EQ PUSH2 0x104 JUMPI DUP1 PUSH4 0xC489744B EQ PUSH2 0x117 JUMPI DUP1 PUSH4 0xD93412F4 EQ PUSH2 0x12A JUMPI PUSH1 0x0 DUP1 REVERT JUMPDEST DUP1 PUSH4 0x9F72DA3 EQ PUSH2 0x8D JUMPI DUP1 PUSH4 0xC95C2CE EQ PUSH2 0xB2 JUMPI DUP1 PUSH4 0x25D07A95 EQ PUSH2 0xCB JUMPI DUP1 PUSH4 0x6D5433E6 EQ PUSH2 0xDE JUMPI JUMPDEST PUSH1 0x0 DUP1 REVERT JUMPDEST PUSH2 0xA0 PUSH2 0x9B CALLDATASIZE PUSH1 0x4 PUSH2 0x4E2 JUMP JUMPDEST PUSH2 0x13D JUMP JUMPDEST PUSH1 0x40 MLOAD SWAP1 DUP2 MSTORE PUSH1 0x20 ADD PUSH1 0x40 MLOAD DUP1 SWAP2 SUB SWAP1 RETURN JUMPDEST PUSH2 0xA0 PUSH2 0xC0 CALLDATASIZE PUSH1 0x4 PUSH2 0x55A JUMP JUMPDEST DUP1 MLOAD PUSH1 0x20 SWAP1 SWAP2 ADD KECCAK256 SWAP1 JUMP JUMPDEST PUSH2 0xA0 PUSH2 0xD9 CALLDATASIZE PUSH1 0x4 PUSH2 0x530 JUMP JUMPDEST PUSH2 0x302 JUMP JUMPDEST PUSH2 0xA0 PUSH2 0xEC CALLDATASIZE PUSH1 0x4 PUSH2 0x68A JUMP JUMPDEST PUSH2 0x334 JUMP JUMPDEST PUSH2 0xA0 PUSH2 0xFF CALLDATASIZE PUSH1 0x4 PUSH2 0x68A JUMP JUMPDEST PUSH2 0x34D JUMP JUMPDEST PUSH2 0xA0 PUSH2 0x112 CALLDATASIZE PUSH1 0x4 PUSH2 0x530 JUMP JUMPDEST PUSH2 0x35D JUMP JUMPDEST PUSH2 0xA0 PUSH2 0x125 CALLDATASIZE PUSH1 0x4 PUSH2 0x4FD JUMP JUMPDEST PUSH2 0x372 JUMP JUMPDEST PUSH2 0xA0 PUSH2 0x138 CALLDATASIZE PUSH1 0x4 PUSH2 0x68A JUMP JUMPDEST PUSH2 0x3EF JUMP JUMPDEST PUSH1 0x0 DUP1 SLOAD PUSH1 0x40 MLOAD PUSH4 0x64D97291 PUSH1 0xE1 SHL DUP2 MSTORE PUSH1 0x1 PUSH1 0x1 PUSH1 0xA0 SHL SUB DUP5 DUP2 AND PUSH1 0x4 DUP4 ADD MSTORE DUP4 SWAP3 PUSH2 0x1C4 SWAP3 SWAP2 AND SWAP1 PUSH4 0xC9B2E522 SWAP1 PUSH1 0x24 ADD PUSH1 0x0 PUSH1 0x40 MLOAD DUP1 DUP4 SUB DUP2 DUP7 DUP1 EXTCODESIZE ISZERO DUP1 ISZERO PUSH2 0x188 JUMPI PUSH1 0x0 DUP1 REVERT JUMPDEST POP GAS STATICCALL ISZERO DUP1 ISZERO PUSH2 0x19C JUMPI RETURNDATASIZE PUSH1 0x0 DUP1 RETURNDATACOPY RETURNDATASIZE PUSH1 0x0 REVERT JUMPDEST POP POP POP POP PUSH1 0x40 MLOAD RETURNDATASIZE PUSH1 0x0 DUP3 RETURNDATACOPY PUSH1 0x1F RETURNDATASIZE SWAP1 DUP2 ADD PUSH1 0x1F NOT AND DUP3 ADD PUSH1 0x40 MSTORE PUSH2 0xC0 SWAP2 SWAP1 DUP2 ADD SWAP1 PUSH2 0x5DA JUMP JUMPDEST PUSH1 0x40 DUP1 MLOAD DUP1 DUP3 ADD SWAP1 SWAP2 MSTORE PUSH1 0x3 DUP2 MSTORE PUSH3 0x8AA89 PUSH1 0xEB SHL PUSH1 0x20 SWAP1 SWAP2 ADD MSTORE SWAP1 POP PUSH32 0xAAAEBEBA3810B1E6B70781F14B2D72C1CB89C0B2B320C43BB67FF79F562F5FF4 DUP2 EQ ISZERO PUSH2 0x213 JUMPI POP PUSH2 0x6BD SWAP3 SWAP2 POP POP JUMP JUMPDEST PUSH1 0x40 DUP1 MLOAD DUP1 DUP3 ADD SWAP1 SWAP2 MSTORE PUSH1 0x3 DUP2 MSTORE PUSH3 0x444149 PUSH1 0xE8 SHL PUSH1 0x20 SWAP1 SWAP2 ADD MSTORE PUSH32 0xA5E92F3EFB6826155F1F728E162AF9D7CDA33A574A1153B58F03EA01CC37E568 DUP2 EQ ISZERO PUSH2 0x25F JUMPI POP PUSH1 0x1 SWAP3 SWAP2 POP POP JUMP JUMPDEST PUSH1 0x40 DUP1 MLOAD DUP1 DUP3 ADD SWAP1 SWAP2 MSTORE PUSH1 0x4 DUP2 MSTORE PUSH4 0x55534443 PUSH1 0xE0 SHL PUSH1 0x20 SWAP1 SWAP2 ADD MSTORE PUSH32 0xD6ACA1BE9729C13D677335161321649CCCAE6A591554772516700F986F942EAA DUP2 EQ ISZERO PUSH2 0x2AC JUMPI POP PUSH1 0x1 SWAP3 SWAP2 POP POP JUMP JUMPDEST PUSH1 0x40 DUP1 MLOAD DUP1 DUP3 ADD SWAP1 SWAP2 MSTORE PUSH1 0x4 DUP2 MSTORE PUSH4 0x4C494E4B PUSH1 0xE0 SHL PUSH1 0x20 SWAP1 SWAP2 ADD MSTORE PUSH32 0x921A3539BCB764C889432630877414523E7FBCA00C211BC787AEAE69E2E3A779 DUP2 EQ ISZERO PUSH2 0x2F9 JUMPI POP PUSH1 0x6 SWAP3 SWAP2 POP POP JUMP JUMPDEST POP PUSH1 0x1 SWAP3 SWAP2 POP POP JUMP JUMPDEST PUSH1 0x0 DUP1 PUSH2 0x317 PUSH8 0xDE0B6B3A7640000 DUP5 PUSH2 0x705 JUMP JUMPDEST PUSH2 0x320 DUP6 PUSH2 0x13D JUMP JUMPDEST PUSH2 0x32A SWAP2 SWAP1 PUSH2 0x727 JUMP JUMPDEST SWAP2 POP POP JUMPDEST SWAP3 SWAP2 POP POP JUMP JUMPDEST PUSH1 0x0 DUP2 DUP4 LT ISZERO PUSH2 0x344 JUMPI DUP2 PUSH2 0x346 JUMP JUMPDEST DUP3 JUMPDEST SWAP4 SWAP3 POP POP POP JUMP JUMPDEST PUSH1 0x0 DUP2 DUP4 GT ISZERO PUSH2 0x344 JUMPI DUP2 PUSH2 0x346 JUMP JUMPDEST PUSH1 0x0 PUSH2 0x368 DUP4 PUSH2 0x13D JUMP JUMPDEST PUSH2 0x346 SWAP1 DUP4 PUSH2 0x705 JUMP JUMPDEST PUSH1 0x40 MLOAD PUSH4 0x70A08231 PUSH1 0xE0 SHL DUP2 MSTORE PUSH1 0x1 PUSH1 0x1 PUSH1 0xA0 SHL SUB DUP4 DUP2 AND PUSH1 0x4 DUP4 ADD MSTORE PUSH1 0x0 SWAP2 SWAP1 DUP4 AND SWAP1 PUSH4 0x70A08231 SWAP1 PUSH1 0x24 ADD PUSH1 0x20 PUSH1 0x40 MLOAD DUP1 DUP4 SUB DUP2 DUP7 DUP1 EXTCODESIZE ISZERO DUP1 ISZERO PUSH2 0x3B7 JUMPI PUSH1 0x0 DUP1 REVERT JUMPDEST POP GAS STATICCALL ISZERO DUP1 ISZERO PUSH2 0x3CB JUMPI RETURNDATASIZE PUSH1 0x0 DUP1 RETURNDATACOPY RETURNDATASIZE PUSH1 0x0 REVERT JUMPDEST POP POP POP POP PUSH1 0x40 MLOAD RETURNDATASIZE PUSH1 0x1F NOT PUSH1 0x1F DUP3 ADD AND DUP3 ADD DUP1 PUSH1 0x40 MSTORE POP DUP2 ADD SWAP1 PUSH2 0x346 SWAP2 SWAP1 PUSH2 0x671 JUMP JUMPDEST PUSH1 0x0 DUP2 PUSH2 0x3FE JUMPI POP PUSH1 0x0 PUSH2 0x32E JUMP JUMPDEST PUSH1 0x0 PUSH2 0x40A DUP5 TIMESTAMP PUSH2 0x746 JUMP JUMPDEST SWAP1 POP PUSH1 0x0 PUSH1 0x1 PUSH1 0x0 SWAP1 SLOAD SWAP1 PUSH2 0x100 EXP SWAP1 DIV PUSH1 0x1 PUSH1 0x1 PUSH1 0xA0 SHL SUB AND PUSH1 0x1 PUSH1 0x1 PUSH1 0xA0 SHL SUB AND PUSH4 0x5B72A33A PUSH1 0x40 MLOAD DUP2 PUSH4 0xFFFFFFFF AND PUSH1 0xE0 SHL DUP2 MSTORE PUSH1 0x4 ADD PUSH1 0x20 PUSH1 0x40 MLOAD DUP1 DUP4 SUB DUP2 DUP7 DUP1 EXTCODESIZE ISZERO DUP1 ISZERO PUSH2 0x45C JUMPI PUSH1 0x0 DUP1 REVERT JUMPDEST POP GAS STATICCALL ISZERO DUP1 ISZERO PUSH2 0x470 JUMPI RETURNDATASIZE PUSH1 0x0 DUP1 RETURNDATACOPY RETURNDATASIZE PUSH1 0x0 REVERT JUMPDEST POP POP POP POP PUSH1 0x40 MLOAD RETURNDATASIZE PUSH1 0x1F NOT PUSH1 0x1F DUP3 ADD AND DUP3 ADD DUP1 PUSH1 0x40 MSTORE POP DUP2 ADD SWAP1 PUSH2 0x494 SWAP2 SWAP1 PUSH2 0x671 JUMP JUMPDEST SWAP1 POP DUP4 PUSH2 0x4A1 DUP3 DUP5 PUSH2 0x727 JUMP JUMPDEST PUSH2 0x4B3 SWAP1 PUSH8 0xDE0B6B3A7640000 PUSH2 0x727 JUMP JUMPDEST PUSH2 0x4BD SWAP2 SWAP1 PUSH2 0x705 JUMP JUMPDEST SWAP6 SWAP5 POP POP POP POP POP JUMP JUMPDEST DUP1 CALLDATALOAD PUSH1 0x1 PUSH1 0x1 PUSH1 0xA0 SHL SUB DUP2 AND DUP2 EQ PUSH2 0x4DD JUMPI PUSH1 0x0 DUP1 REVERT JUMPDEST SWAP2 SWAP1 POP JUMP JUMPDEST PUSH1 0x0 PUSH1 0x20 DUP3 DUP5 SUB SLT ISZERO PUSH2 0x4F4 JUMPI PUSH1 0x0 DUP1 REVERT JUMPDEST PUSH2 0x346 DUP3 PUSH2 0x4C6 JUMP JUMPDEST PUSH1 0x0 DUP1 PUSH1 0x40 DUP4 DUP6 SUB SLT ISZERO PUSH2 0x510 JUMPI PUSH1 0x0 DUP1 REVERT JUMPDEST PUSH2 0x519 DUP4 PUSH2 0x4C6 JUMP JUMPDEST SWAP2 POP PUSH2 0x527 PUSH1 0x20 DUP5 ADD PUSH2 0x4C6 JUMP JUMPDEST SWAP1 POP SWAP3 POP SWAP3 SWAP1 POP JUMP JUMPDEST PUSH1 0x0 DUP1 PUSH1 0x40 DUP4 DUP6 SUB SLT ISZERO PUSH2 0x543 JUMPI PUSH1 0x0 DUP1 REVERT JUMPDEST PUSH2 0x54C DUP4 PUSH2 0x4C6 JUMP JUMPDEST SWAP5 PUSH1 0x20 SWAP4 SWAP1 SWAP4 ADD CALLDATALOAD SWAP4 POP POP POP JUMP JUMPDEST PUSH1 0x0 PUSH1 0x20 DUP3 DUP5 SUB SLT ISZERO PUSH2 0x56C JUMPI PUSH1 0x0 DUP1 REVERT JUMPDEST DUP2 CALLDATALOAD PUSH8 0xFFFFFFFFFFFFFFFF DUP2 GT ISZERO PUSH2 0x583 JUMPI PUSH1 0x0 DUP1 REVERT JUMPDEST DUP3 ADD PUSH1 0x1F DUP2 ADD DUP5 SGT PUSH2 0x594 JUMPI PUSH1 0x0 DUP1 REVERT JUMPDEST DUP1 CALLDATALOAD PUSH2 0x5A7 PUSH2 0x5A2 DUP3 PUSH2 0x6DD JUMP JUMPDEST PUSH2 0x6AC JUMP JUMPDEST DUP2 DUP2 MSTORE DUP6 PUSH1 0x20 DUP4 DUP6 ADD ADD GT ISZERO PUSH2 0x5BC JUMPI PUSH1 0x0 DUP1 REVERT JUMPDEST DUP2 PUSH1 0x20 DUP5 ADD PUSH1 0x20 DUP4 ADD CALLDATACOPY PUSH1 0x0 SWAP2 DUP2 ADD PUSH1 0x20 ADD SWAP2 SWAP1 SWAP2 MSTORE SWAP5 SWAP4 POP POP POP POP JUMP JUMPDEST PUSH1 0x0 PUSH1 0x20 DUP1 DUP4 DUP6 SUB SLT ISZERO PUSH2 0x5ED JUMPI PUSH1 0x0 DUP1 REVERT JUMPDEST DUP3 MLOAD PUSH8 0xFFFFFFFFFFFFFFFF DUP2 GT ISZERO PUSH2 0x604 JUMPI PUSH1 0x0 DUP1 REVERT JUMPDEST DUP4 ADD PUSH1 0x1F DUP2 ADD DUP6 SGT PUSH2 0x615 JUMPI PUSH1 0x0 DUP1 REVERT JUMPDEST DUP1 MLOAD PUSH2 0x623 PUSH2 0x5A2 DUP3 PUSH2 0x6DD JUMP JUMPDEST DUP2 DUP2 MSTORE DUP7 DUP5 DUP4 DUP6 ADD ADD GT ISZERO PUSH2 0x637 JUMPI PUSH1 0x0 DUP1 REVERT JUMPDEST PUSH1 0x0 JUMPDEST DUP3 DUP2 LT ISZERO PUSH2 0x655 JUMPI DUP4 DUP2 ADD DUP6 ADD MLOAD DUP3 DUP3 ADD DUP7 ADD MSTORE DUP5 ADD PUSH2 0x63A JUMP JUMPDEST DUP3 DUP2 GT ISZERO PUSH2 0x666 JUMPI PUSH1 0x0 DUP6 DUP5 DUP5 ADD ADD MSTORE JUMPDEST POP SWAP7 SWAP6 POP POP POP POP POP POP JUMP JUMPDEST PUSH1 0x0 PUSH1 0x20 DUP3 DUP5 SUB SLT ISZERO PUSH2 0x683 JUMPI PUSH1 0x0 DUP1 REVERT JUMPDEST POP MLOAD SWAP2 SWAP1 POP JUMP JUMPDEST PUSH1 0x0 DUP1 PUSH1 0x40 DUP4 DUP6 SUB SLT ISZERO PUSH2 0x69D JUMPI PUSH1 0x0 DUP1 REVERT JUMPDEST POP POP DUP1 CALLDATALOAD SWAP3 PUSH1 0x20 SWAP1 SWAP2 ADD CALLDATALOAD SWAP2 POP JUMP JUMPDEST PUSH1 0x40 MLOAD PUSH1 0x1F DUP3 ADD PUSH1 0x1F NOT AND DUP2 ADD PUSH8 0xFFFFFFFFFFFFFFFF DUP2 GT DUP3 DUP3 LT OR ISZERO PUSH2 0x6D5 JUMPI PUSH2 0x6D5 PUSH2 0x773 JUMP JUMPDEST PUSH1 0x40 MSTORE SWAP2 SWAP1 POP JUMP JUMPDEST PUSH1 0x0 PUSH8 0xFFFFFFFFFFFFFFFF DUP3 GT ISZERO PUSH2 0x6F7 JUMPI PUSH2 0x6F7 PUSH2 0x773 JUMP JUMPDEST POP PUSH1 0x1F ADD PUSH1 0x1F NOT AND PUSH1 0x20 ADD SWAP1 JUMP JUMPDEST PUSH1 0x0 DUP3 PUSH2 0x722 JUMPI PUSH4 0x4E487B71 PUSH1 0xE0 SHL PUSH1 0x0 MSTORE PUSH1 0x12 PUSH1 0x4 MSTORE PUSH1 0x24 PUSH1 0x0 REVERT JUMPDEST POP DIV SWAP1 JUMP JUMPDEST PUSH1 0x0 DUP2 PUSH1 0x0 NOT DIV DUP4 GT DUP3 ISZERO ISZERO AND ISZERO PUSH2 0x741 JUMPI PUSH2 0x741 PUSH2 0x75D JUMP JUMPDEST POP MUL SWAP1 JUMP JUMPDEST PUSH1 0x0 DUP3 DUP3 LT ISZERO PUSH2 0x758 JUMPI PUSH2 0x758 PUSH2 0x75D JUMP JUMPDEST POP SUB SWAP1 JUMP JUMPDEST PUSH4 0x4E487B71 PUSH1 0xE0 SHL PUSH1 0x0 MSTORE PUSH1 0x11 PUSH1 0x4 MSTORE PUSH1 0x24 PUSH1 0x0 REVERT JUMPDEST PUSH4 0x4E487B71 PUSH1 0xE0 SHL PUSH1 0x0 MSTORE PUSH1 0x41 PUSH1 0x4 MSTORE PUSH1 0x24 PUSH1 0x0 REVERT INVALID LOG2 PUSH5 0x6970667358 0x22 SLT KECCAK256 0xB0 DUP2 0xCE REVERT ADD 0xE7 0x1F 0x25 DUP3 DUP7 0xD1 0xBD CALLER PUSH30 0x3F41BBB95E4788CB932BA7CCA3F702457D5A64736F6C6343000806003300 "},"methodIdentifiers":{"getAmountInUSD(address,uint256)":"25d07a95","getCurrentTokenPrice(address)":"09f72da3","getKeccackHash(string)":"0c95c2ce","getTokenBalance(address,address)":"c489744b","getTokensPerUSDAmount(address,uint256)":"9390f680","max(uint256,uint256)":"6d5433e6","min(uint256,uint256)":"7ae2b5c7","rewardPerToken(uint256,uint256)":"d93412f4"}}}}}