{
  "_format": "hh-sol-artifact-1",
  "contractName": "LendingConfig",
  "sourceName": "contracts/LendingConfig.sol",
  "abi": [
    {
      "inputs": [
        {
          "internalType": "uint256",
          "name": "_interestRate",
          "type": "uint256"
        },
        {
          "internalType": "uint256",
          "name": "_borrowRate",
          "type": "uint256"
        }
      ],
      "stateMutability": "nonpayable",
      "type": "constructor"
    },
    {
      "anonymous": false,
      "inputs": [
        {
          "indexed": false,
          "internalType": "address",
          "name": "token",
          "type": "address"
        },
        {
          "indexed": false,
          "internalType": "string",
          "name": "symbol",
          "type": "string"
        },
        {
          "indexed": false,
          "internalType": "uint256",
          "name": "borrowThreshold",
          "type": "uint256"
        },
        {
          "indexed": false,
          "internalType": "uint256",
          "name": "liquidationThreshold",
          "type": "uint256"
        }
      ],
      "name": "AddAsset",
      "type": "event"
    },
    {
      "anonymous": false,
      "inputs": [
        {
          "indexed": false,
          "internalType": "address",
          "name": "token",
          "type": "address"
        },
        {
          "indexed": false,
          "internalType": "enum LendingConfig.Freeze",
          "name": "isfrozen",
          "type": "uint8"
        }
      ],
      "name": "UpdateAssetFrozen",
      "type": "event"
    },
    {
      "anonymous": false,
      "inputs": [
        {
          "indexed": false,
          "internalType": "address",
          "name": "token",
          "type": "address"
        },
        {
          "indexed": false,
          "internalType": "enum LendingConfig.AssetStatus",
          "name": "isActive",
          "type": "uint8"
        }
      ],
      "name": "UpdateAssetStatus",
      "type": "event"
    },
    {
      "inputs": [],
      "name": "BORROW_RATE",
      "outputs": [
        {
          "internalType": "uint256",
          "name": "",
          "type": "uint256"
        }
      ],
      "stateMutability": "view",
      "type": "function"
    },
    {
      "inputs": [],
      "name": "BORROW_THRESHOLD",
      "outputs": [
        {
          "internalType": "uint256",
          "name": "",
          "type": "uint256"
        }
      ],
      "stateMutability": "view",
      "type": "function"
    },
    {
      "inputs": [],
      "name": "DECIMALS",
      "outputs": [
        {
          "internalType": "uint256",
          "name": "",
          "type": "uint256"
        }
      ],
      "stateMutability": "view",
      "type": "function"
    },
    {
      "inputs": [],
      "name": "INTEREST_RATE",
      "outputs": [
        {
          "internalType": "uint256",
          "name": "",
          "type": "uint256"
        }
      ],
      "stateMutability": "view",
      "type": "function"
    },
    {
      "inputs": [],
      "name": "LIQUIDATION_THRESHOLD",
      "outputs": [
        {
          "internalType": "uint256",
          "name": "",
          "type": "uint256"
        }
      ],
      "stateMutability": "view",
      "type": "function"
    },
    {
      "inputs": [],
      "name": "REWARD_RATE_PER_SECS",
      "outputs": [
        {
          "internalType": "uint256",
          "name": "",
          "type": "uint256"
        }
      ],
      "stateMutability": "view",
      "type": "function"
    },
    {
      "inputs": [],
      "name": "SECONDS_IN_A_DAY",
      "outputs": [
        {
          "internalType": "uint256",
          "name": "",
          "type": "uint256"
        }
      ],
      "stateMutability": "view",
      "type": "function"
    },
    {
      "inputs": [
        {
          "internalType": "address",
          "name": "_token",
          "type": "address"
        },
        {
          "internalType": "bool",
          "name": "_borrowingEnabled",
          "type": "bool"
        },
        {
          "internalType": "bool",
          "name": "_usageAsCollateralEnabled",
          "type": "bool"
        },
        {
          "internalType": "bool",
          "name": "_isfrozen",
          "type": "bool"
        },
        {
          "internalType": "bool",
          "name": "_isActive",
          "type": "bool"
        },
        {
          "internalType": "string",
          "name": "_symbol",
          "type": "string"
        },
        {
          "internalType": "uint256",
          "name": "_decimals",
          "type": "uint256"
        },
        {
          "internalType": "uint256",
          "name": "_borrowThreshold",
          "type": "uint256"
        },
        {
          "internalType": "uint256",
          "name": "_liquidationThreshold",
          "type": "uint256"
        }
      ],
      "name": "addAsset",
      "outputs": [
        {
          "internalType": "bool",
          "name": "",
          "type": "bool"
        }
      ],
      "stateMutability": "nonpayable",
      "type": "function"
    },
    {
      "inputs": [
        {
          "internalType": "address",
          "name": "_token",
          "type": "address"
        },
        {
          "internalType": "enum LendingConfig.Freeze",
          "name": "_choice",
          "type": "uint8"
        }
      ],
      "name": "freezeUnFreezeAsset",
      "outputs": [
        {
          "internalType": "bool",
          "name": "",
          "type": "bool"
        }
      ],
      "stateMutability": "nonpayable",
      "type": "function"
    },
    {
      "inputs": [
        {
          "internalType": "address",
          "name": "_token",
          "type": "address"
        }
      ],
      "name": "getAssetByTokenAddress",
      "outputs": [
        {
          "components": [
            {
              "internalType": "address",
              "name": "token",
              "type": "address"
            },
            {
              "internalType": "string",
              "name": "symbol",
              "type": "string"
            },
            {
              "internalType": "uint256",
              "name": "decimals",
              "type": "uint256"
            },
            {
              "internalType": "uint256",
              "name": "borrowThreshold",
              "type": "uint256"
            },
            {
              "internalType": "uint256",
              "name": "liquidationThreshold",
              "type": "uint256"
            },
            {
              "internalType": "uint256",
              "name": "lastUpdateTimestamp",
              "type": "uint256"
            },
            {
              "internalType": "bool",
              "name": "borrowingEnabled",
              "type": "bool"
            },
            {
              "internalType": "bool",
              "name": "usageAsCollateralEnabled",
              "type": "bool"
            },
            {
              "internalType": "bool",
              "name": "isfrozen",
              "type": "bool"
            },
            {
              "internalType": "bool",
              "name": "isActive",
              "type": "bool"
            }
          ],
          "internalType": "struct LendingConfig.Asset",
          "name": "",
          "type": "tuple"
        }
      ],
      "stateMutability": "view",
      "type": "function"
    },
    {
      "inputs": [
        {
          "internalType": "string",
          "name": "_symbol",
          "type": "string"
        }
      ],
      "name": "getAssetByTokenSymbol",
      "outputs": [
        {
          "components": [
            {
              "internalType": "address",
              "name": "token",
              "type": "address"
            },
            {
              "internalType": "string",
              "name": "symbol",
              "type": "string"
            },
            {
              "internalType": "uint256",
              "name": "decimals",
              "type": "uint256"
            },
            {
              "internalType": "uint256",
              "name": "borrowThreshold",
              "type": "uint256"
            },
            {
              "internalType": "uint256",
              "name": "liquidationThreshold",
              "type": "uint256"
            },
            {
              "internalType": "uint256",
              "name": "lastUpdateTimestamp",
              "type": "uint256"
            },
            {
              "internalType": "bool",
              "name": "borrowingEnabled",
              "type": "bool"
            },
            {
              "internalType": "bool",
              "name": "usageAsCollateralEnabled",
              "type": "bool"
            },
            {
              "internalType": "bool",
              "name": "isfrozen",
              "type": "bool"
            },
            {
              "internalType": "bool",
              "name": "isActive",
              "type": "bool"
            }
          ],
          "internalType": "struct LendingConfig.Asset",
          "name": "",
          "type": "tuple"
        }
      ],
      "stateMutability": "view",
      "type": "function"
    },
    {
      "inputs": [],
      "name": "getAssets",
      "outputs": [
        {
          "components": [
            {
              "internalType": "address",
              "name": "token",
              "type": "address"
            },
            {
              "internalType": "string",
              "name": "symbol",
              "type": "string"
            },
            {
              "internalType": "uint256",
              "name": "decimals",
              "type": "uint256"
            },
            {
              "internalType": "uint256",
              "name": "borrowThreshold",
              "type": "uint256"
            },
            {
              "internalType": "uint256",
              "name": "liquidationThreshold",
              "type": "uint256"
            },
            {
              "internalType": "uint256",
              "name": "lastUpdateTimestamp",
              "type": "uint256"
            },
            {
              "internalType": "bool",
              "name": "borrowingEnabled",
              "type": "bool"
            },
            {
              "internalType": "bool",
              "name": "usageAsCollateralEnabled",
              "type": "bool"
            },
            {
              "internalType": "bool",
              "name": "isfrozen",
              "type": "bool"
            },
            {
              "internalType": "bool",
              "name": "isActive",
              "type": "bool"
            }
          ],
          "internalType": "struct LendingConfig.Asset[]",
          "name": "",
          "type": "tuple[]"
        }
      ],
      "stateMutability": "view",
      "type": "function"
    },
    {
      "inputs": [
        {
          "internalType": "address",
          "name": "_token",
          "type": "address"
        }
      ],
      "name": "isBorrowingEnabled",
      "outputs": [
        {
          "internalType": "bool",
          "name": "",
          "type": "bool"
        }
      ],
      "stateMutability": "view",
      "type": "function"
    },
    {
      "inputs": [
        {
          "internalType": "address",
          "name": "_token",
          "type": "address"
        }
      ],
      "name": "isTokenInAssets",
      "outputs": [
        {
          "internalType": "bool",
          "name": "",
          "type": "bool"
        }
      ],
      "stateMutability": "view",
      "type": "function"
    },
    {
      "inputs": [
        {
          "internalType": "address",
          "name": "_token",
          "type": "address"
        },
        {
          "internalType": "enum LendingConfig.AssetStatus",
          "name": "_choice",
          "type": "uint8"
        }
      ],
      "name": "makeAssetActiveInactive",
      "outputs": [
        {
          "internalType": "bool",
          "name": "",
          "type": "bool"
        }
      ],
      "stateMutability": "nonpayable",
      "type": "function"
    },
    {
      "inputs": [
        {
          "internalType": "uint256",
          "name": "_borrowRate",
          "type": "uint256"
        }
      ],
      "name": "updateBorrowRate",
      "outputs": [],
      "stateMutability": "nonpayable",
      "type": "function"
    },
    {
      "inputs": [
        {
          "internalType": "uint256",
          "name": "_interestRate",
          "type": "uint256"
        }
      ],
      "name": "updateInterestRate",
      "outputs": [],
      "stateMutability": "nonpayable",
      "type": "function"
    }
  ],
  "bytecode": "0x608060405234801561001057600080fd5b5060405161151b38038061151b83398101604081905261002f9161004f565b600080546001600160a01b03191633179055600191909155600255610073565b6000806040838503121561006257600080fd5b505080516020909101519092909150565b611499806100826000396000f3fe608060405234801561001057600080fd5b506004361061010b5760003560e01c8063602839db116100a2578063827401bb11610071578063827401bb146101e657806390a8ae9b14610206578063e25740301461020e578063e714962314610221578063f9cfa06f1461023457600080fd5b8063602839db146101a2578063671e3f75146101ab57806367e4ac2c146101be578063752a50a6146101d357600080fd5b80632e0f2625116100de5780632e0f26251461016b57806337442b6c146101735780634c2fad06146101865780635b72a33a1461019957600080fd5b806302b8c56d146101105780631500c2ff14610125578063182f7fd81461014057806325101dbc14610148575b600080fd5b61012361011e366004611075565b61023e565b005b61012d605081565b6040519081526020015b60405180910390f35b61012d600c81565b61015b610156366004610e87565b610283565b6040519015158152602001610137565b61012d601281565b61015b610181366004610e87565b6102f6565b61015b610194366004610ea9565b610387565b61012d60015481565b61012d60025481565b61015b6101b9366004610f8d565b61058a565b6101c661069a565b6040516101379190611297565b6101236101e1366004611075565b61080c565b6101f96101f4366004610fc4565b610844565b6040516101379190611330565b61012d607881565b6101f961021c366004610e87565b610a40565b61015b61022f366004610f8d565b610c71565b61012d6201518081565b6000546001600160a01b031633146102715760405162461bcd60e51b8152600401610268906112f9565b60405180910390fd5b80600254146102805760028190555b50565b600454600090815b818110156102ec57836001600160a01b0316600482815481106102b0576102b061140c565b60009182526020909120600790910201546001600160a01b031614156102da575060019392505050565b806102e4816113c5565b91505061028b565b5060009392505050565b600454600090815b818110156102ec57836001600160a01b0316600482815481106103235761032361140c565b60009182526020909120600790910201546001600160a01b0316141561037557600481815481106103565761035661140c565b600091825260209091206006600790920201015460ff16949350505050565b8061037f816113c5565b9150506102fe565b600060046040518061014001604052808d6001600160a01b0316815260200188888080601f0160208091040260200160405190810160405280939291908181526020018383808284376000920182905250938552505050602080830189905260408301889052606083018790524260808401528e151560a08401528d151560c08401528c151560e08401528b15156101009093019290925283546001808201865594825290829020835160079092020180546001600160a01b0319166001600160a01b039092169190911781558282015180519394919361047093928501929190910190610d5e565b506040820151600282015560608201516003820155608082015160048083019190915560a0830151600583015560c08301516006909201805460e0850151610100808701516101209097015161ffff1990931695151561ff001916959095179015159094029390931763ffff00001916620100009415159490940263ff000000191693909317630100000092151592909202919091179091555461051690600190611343565b600387876040516105289291906111f4565b9081526020016040518091039020819055507fcd7be9ca97d79d2c4048b8402afd93bb5f487441dc211d4bd2e95011ccd423a08b87878686604051610571959493929190611246565b60405180910390a15060019a9950505050505050505050565b600080546001600160a01b031633146105b55760405162461bcd60e51b8152600401610268906112f9565b60045460005b8181101561068d576000600482815481106105d8576105d861140c565b6000918252602090912060079091020180549091506001600160a01b038781169116141561067a576000856001811115610614576106146113f6565b60068301805463ff0000001916919092146301000000021790554260058201556040517f1bc4f6a74fdbf500e13db259c58a58c59533ea54a4b93010d0126f6061ec3753906106669088908890611220565b60405180910390a160019350505050610694565b5080610685816113c5565b9150506105bb565b5060009150505b92915050565b60606004805480602002602001604051908101604052809291908181526020016000905b828210156108035760008481526020908190206040805161014081019091526007850290910180546001600160a01b0316825260018101805492939192918401916107089061138a565b80601f01602080910402602001604051908101604052809291908181526020018280546107349061138a565b80156107815780601f1061075657610100808354040283529160200191610781565b820191906000526020600020905b81548152906001019060200180831161076457829003601f168201915b5050509183525050600282015460208083019190915260038301546040830152600483015460608301526005830154608083015260069092015460ff808216151560a08401526101008083048216151560c08501526201000083048216151560e0850152630100000090920416151591015290825260019290920191016106be565b50505050905090565b6000546001600160a01b031633146108365760405162461bcd60e51b8152600401610268906112f9565b806001541461028057600155565b61084c610de2565b600060038360405161085e9190611204565b90815260405190819003602001902054600454909150811080156108c057508280519060200120600482815481106108985761089861140c565b90600052602060002090600702016001016040516108b69190611158565b6040518091039020145b6108fe5760405162461bcd60e51b815260206004820152600f60248201526e105cdcd95d081b9bdd08199bdd5b99608a1b6044820152606401610268565b600481815481106109115761091161140c565b600091825260209182902060408051610140810190915260079092020180546001600160a01b0316825260018101805492939192918401916109529061138a565b80601f016020809104026020016040519081016040528092919081815260200182805461097e9061138a565b80156109cb5780601f106109a0576101008083540402835291602001916109cb565b820191906000526020600020905b8154815290600101906020018083116109ae57829003601f168201915b50505091835250506002820154602082015260038201546040820152600482015460608201526005820154608082015260069091015460ff808216151560a08401526101008083048216151560c08501526201000083048216151560e085015263010000009092041615159101529392505050565b610a48610de2565b6001600160a01b038216610a965760405162461bcd60e51b8152602060048201526015602482015274496e76616c696420746f6b656e206164647265737360581b6044820152606401610268565b60045460005b81811015610c3657836001600160a01b031660048281548110610ac157610ac161140c565b60009182526020909120600790910201546001600160a01b03161415610c245760048181548110610af457610af461140c565b600091825260209182902060408051610140810190915260079092020180546001600160a01b031682526001810180549293919291840191610b359061138a565b80601f0160208091040260200160405190810160405280929190818152602001828054610b619061138a565b8015610bae5780601f10610b8357610100808354040283529160200191610bae565b820191906000526020600020905b815481529060010190602001808311610b9157829003601f168201915b50505091835250506002820154602082015260038201546040820152600482015460608201526005820154608082015260069091015460ff808216151560a08401526101008083048216151560c08501526201000083048216151560e08501526301000000909204161515910152949350505050565b80610c2e816113c5565b915050610a9c565b5060405162461bcd60e51b815260206004820152600f60248201526e105cdcd95d081b9bdd08199bdd5b99608a1b6044820152606401610268565b600080546001600160a01b03163314610c9c5760405162461bcd60e51b8152600401610268906112f9565b60045460005b8181101561068d57600060048281548110610cbf57610cbf61140c565b6000918252602090912060079091020180549091506001600160a01b0387811691161415610d4b576000856001811115610cfb57610cfb6113f6565b60068301805462ff000019169190921462010000021790554260058201556040517f3f57ea1559cfee0ff7804a8bbf56c488fbd7f8d575acd8537d7f02a6ffb8bdb4906106669088908890611220565b5080610d56816113c5565b915050610ca2565b828054610d6a9061138a565b90600052602060002090601f016020900481019282610d8c5760008555610dd2565b82601f10610da557805160ff1916838001178555610dd2565b82800160010185558215610dd2579182015b82811115610dd2578251825591602001919060010190610db7565b50610dde929150610e46565b5090565b60405180610140016040528060006001600160a01b0316815260200160608152602001600081526020016000815260200160008152602001600081526020016000151581526020016000151581526020016000151581526020016000151581525090565b5b80821115610dde5760008155600101610e47565b80356001600160a01b0381168114610e7257600080fd5b919050565b80358015158114610e7257600080fd5b600060208284031215610e9957600080fd5b610ea282610e5b565b9392505050565b6000806000806000806000806000806101208b8d031215610ec957600080fd5b610ed28b610e5b565b9950610ee060208c01610e77565b9850610eee60408c01610e77565b9750610efc60608c01610e77565b9650610f0a60808c01610e77565b955060a08b013567ffffffffffffffff80821115610f2757600080fd5b818d0191508d601f830112610f3b57600080fd5b813581811115610f4a57600080fd5b8e6020828501011115610f5c57600080fd5b60208301975080965050505060c08b0135925060e08b013591506101008b013590509295989b9194979a5092959850565b60008060408385031215610fa057600080fd5b610fa983610e5b565b91506020830135610fb981611456565b809150509250929050565b600060208284031215610fd657600080fd5b813567ffffffffffffffff80821115610fee57600080fd5b818401915084601f83011261100257600080fd5b81358181111561101457611014611422565b604051601f8201601f19908116603f0116810190838211818310171561103c5761103c611422565b8160405282815287602084870101111561105557600080fd5b826020860160208301376000928101602001929092525095945050505050565b60006020828403121561108757600080fd5b5035919050565b600081518084526110a681602086016020860161135a565b601f01601f19169290920160200192915050565b80516001600160a01b03168252600061014060208301518160208601526110e38286018261108e565b91505060408301516040850152606083015160608501526080830151608085015260a083015160a085015260c083015161112160c086018215159052565b5060e083015161113560e086018215159052565b506101008381015115159085015261012092830151151592909301919091525090565b600080835481600182811c91508083168061117457607f831692505b602080841082141561119457634e487b7160e01b86526022600452602486fd5b8180156111a857600181146111b9576111e6565b60ff198616895284890196506111e6565b60008a81526020902060005b868110156111de5781548b8201529085019083016111c5565b505084890196505b509498975050505050505050565b8183823760009101908152919050565b6000825161121681846020870161135a565b9190910192915050565b6001600160a01b03831681526040810161123983611438565b8260208301529392505050565b6001600160a01b03861681526080602082018190528101849052838560a0830137600060a08583010152600060a0601f19601f87011683010190508360408301528260608301529695505050505050565b6000602080830181845280855180835260408601915060408160051b870101925083870160005b828110156112ec57603f198886030184526112da8583516110ba565b945092850192908501906001016112be565b5092979650505050505050565b6020808252601b908201527f4e6f74204f776e65722c2063616e6e6f742070657266726d204f500000000000604082015260600190565b602081526000610ea260208301846110ba565b600082821015611355576113556113e0565b500390565b60005b8381101561137557818101518382015260200161135d565b83811115611384576000848401525b50505050565b600181811c9082168061139e57607f821691505b602082108114156113bf57634e487b7160e01b600052602260045260246000fd5b50919050565b60006000198214156113d9576113d96113e0565b5060010190565b634e487b7160e01b600052601160045260246000fd5b634e487b7160e01b600052602160045260246000fd5b634e487b7160e01b600052603260045260246000fd5b634e487b7160e01b600052604160045260246000fd5b6002811061028057634e487b7160e01b600052602160045260246000fd5b6002811061028057600080fdfea2646970667358221220d9b4e795949e901e5b3618a4d8271735eef99dbd7736f56ee4d657b9916042d364736f6c63430008060033",
  "linkReferences": {},
  "deployedLinkReferences": {}
}