{
  "_format": "hh-sol-artifact-1",
  "contractName": "LendingHelper",
  "sourceName": "contracts/LendingHelper.sol",
  "abi": [
    {
      "inputs": [
        {
          "internalType": "address",
          "name": "_addressToTokenMap",
          "type": "address"
        },
        {
          "internalType": "address",
          "name": "_lendingConfig",
          "type": "address"
        }
      ],
      "stateMutability": "nonpayable",
      "type": "constructor"
    },
    {
      "inputs": [
        {
          "internalType": "address",
          "name": "_token",
          "type": "address"
        },
        {
          "internalType": "uint256",
          "name": "_amount",
          "type": "uint256"
        }
      ],
      "name": "getAmountInUSD",
      "outputs": [
        {
          "internalType": "uint256",
          "name": "",
          "type": "uint256"
        }
      ],
      "stateMutability": "view",
      "type": "function"
    },
    {
      "inputs": [
        {
          "internalType": "address",
          "name": "_tokenAddress",
          "type": "address"
        }
      ],
      "name": "getCurrentTokenPrice",
      "outputs": [
        {
          "internalType": "uint256",
          "name": "",
          "type": "uint256"
        }
      ],
      "stateMutability": "view",
      "type": "function"
    },
    {
      "inputs": [
        {
          "internalType": "string",
          "name": "symbol",
          "type": "string"
        }
      ],
      "name": "getKeccackHash",
      "outputs": [
        {
          "internalType": "bytes32",
          "name": "",
          "type": "bytes32"
        }
      ],
      "stateMutability": "pure",
      "type": "function"
    },
    {
      "inputs": [
        {
          "internalType": "address",
          "name": "_address",
          "type": "address"
        },
        {
          "internalType": "address",
          "name": "_token",
          "type": "address"
        }
      ],
      "name": "getTokenBalance",
      "outputs": [
        {
          "internalType": "uint256",
          "name": "",
          "type": "uint256"
        }
      ],
      "stateMutability": "view",
      "type": "function"
    },
    {
      "inputs": [
        {
          "internalType": "address",
          "name": "_token",
          "type": "address"
        },
        {
          "internalType": "uint256",
          "name": "_usdAmount",
          "type": "uint256"
        }
      ],
      "name": "getTokensPerUSDAmount",
      "outputs": [
        {
          "internalType": "uint256",
          "name": "",
          "type": "uint256"
        }
      ],
      "stateMutability": "view",
      "type": "function"
    },
    {
      "inputs": [
        {
          "internalType": "uint256",
          "name": "x",
          "type": "uint256"
        },
        {
          "internalType": "uint256",
          "name": "y",
          "type": "uint256"
        }
      ],
      "name": "max",
      "outputs": [
        {
          "internalType": "uint256",
          "name": "",
          "type": "uint256"
        }
      ],
      "stateMutability": "pure",
      "type": "function"
    },
    {
      "inputs": [
        {
          "internalType": "uint256",
          "name": "x",
          "type": "uint256"
        },
        {
          "internalType": "uint256",
          "name": "y",
          "type": "uint256"
        }
      ],
      "name": "min",
      "outputs": [
        {
          "internalType": "uint256",
          "name": "",
          "type": "uint256"
        }
      ],
      "stateMutability": "pure",
      "type": "function"
    },
    {
      "inputs": [
        {
          "internalType": "uint256",
          "name": "startTimeStamp",
          "type": "uint256"
        },
        {
          "internalType": "uint256",
          "name": "totalTokenSupply",
          "type": "uint256"
        }
      ],
      "name": "rewardPerToken",
      "outputs": [
        {
          "internalType": "uint256",
          "name": "",
          "type": "uint256"
        }
      ],
      "stateMutability": "view",
      "type": "function"
    }
  ],
  "bytecode": "0x608060405234801561001057600080fd5b5060405161087d38038061087d83398101604081905261002f9161007c565b600080546001600160a01b039384166001600160a01b031991821617909155600180549290931691161790556100af565b80516001600160a01b038116811461007757600080fd5b919050565b6000806040838503121561008f57600080fd5b61009883610060565b91506100a660208401610060565b90509250929050565b6107bf806100be6000396000f3fe608060405234801561001057600080fd5b50600436106100885760003560e01c80637ae2b5c71161005b5780637ae2b5c7146100f15780639390f68014610104578063c489744b14610117578063d93412f41461012a57600080fd5b806309f72da31461008d5780630c95c2ce146100b257806325d07a95146100cb5780636d5433e6146100de575b600080fd5b6100a061009b3660046104e2565b61013d565b60405190815260200160405180910390f35b6100a06100c036600461055a565b805160209091012090565b6100a06100d9366004610530565b610302565b6100a06100ec36600461068a565b610334565b6100a06100ff36600461068a565b61034d565b6100a0610112366004610530565b61035d565b6100a06101253660046104fd565b610372565b6100a061013836600461068a565b6103ef565b600080546040516364d9729160e11b81526001600160a01b03848116600483015283926101c49291169063c9b2e5229060240160006040518083038186803b15801561018857600080fd5b505afa15801561019c573d6000803e3d6000fd5b505050506040513d6000823e601f3d908101601f191682016040526100c091908101906105da565b60408051808201909152600381526208aa8960eb1b60209091015290507faaaebeba3810b1e6b70781f14b2d72c1cb89c0b2b320c43bb67ff79f562f5ff481141561021357506106bd92915050565b60408051808201909152600381526244414960e81b6020909101527fa5e92f3efb6826155f1f728e162af9d7cda33a574a1153b58f03ea01cc37e56881141561025f5750600192915050565b6040805180820190915260048152635553444360e01b6020909101527fd6aca1be9729c13d677335161321649cccae6a591554772516700f986f942eaa8114156102ac5750600192915050565b6040805180820190915260048152634c494e4b60e01b6020909101527f921a3539bcb764c889432630877414523e7fbca00c211bc787aeae69e2e3a7798114156102f95750600692915050565b50600192915050565b600080610317670de0b6b3a764000084610705565b6103208561013d565b61032a9190610727565b9150505b92915050565b6000818310156103445781610346565b825b9392505050565b6000818311156103445781610346565b60006103688361013d565b6103469083610705565b6040516370a0823160e01b81526001600160a01b038381166004830152600091908316906370a082319060240160206040518083038186803b1580156103b757600080fd5b505afa1580156103cb573d6000803e3d6000fd5b505050506040513d601f19601f820116820180604052508101906103469190610671565b6000816103fe5750600061032e565b600061040a8442610746565b90506000600160009054906101000a90046001600160a01b03166001600160a01b0316635b72a33a6040518163ffffffff1660e01b815260040160206040518083038186803b15801561045c57600080fd5b505afa158015610470573d6000803e3d6000fd5b505050506040513d601f19601f820116820180604052508101906104949190610671565b9050836104a18284610727565b6104b390670de0b6b3a7640000610727565b6104bd9190610705565b95945050505050565b80356001600160a01b03811681146104dd57600080fd5b919050565b6000602082840312156104f457600080fd5b610346826104c6565b6000806040838503121561051057600080fd5b610519836104c6565b9150610527602084016104c6565b90509250929050565b6000806040838503121561054357600080fd5b61054c836104c6565b946020939093013593505050565b60006020828403121561056c57600080fd5b813567ffffffffffffffff81111561058357600080fd5b8201601f8101841361059457600080fd5b80356105a76105a2826106dd565b6106ac565b8181528560208385010111156105bc57600080fd5b81602084016020830137600091810160200191909152949350505050565b600060208083850312156105ed57600080fd5b825167ffffffffffffffff81111561060457600080fd5b8301601f8101851361061557600080fd5b80516106236105a2826106dd565b818152868483850101111561063757600080fd5b60005b8281101561065557838101850151828201860152840161063a565b828111156106665760008584840101525b509695505050505050565b60006020828403121561068357600080fd5b5051919050565b6000806040838503121561069d57600080fd5b50508035926020909101359150565b604051601f8201601f1916810167ffffffffffffffff811182821017156106d5576106d5610773565b604052919050565b600067ffffffffffffffff8211156106f7576106f7610773565b50601f01601f191660200190565b60008261072257634e487b7160e01b600052601260045260246000fd5b500490565b60008160001904831182151516156107415761074161075d565b500290565b6000828210156107585761075861075d565b500390565b634e487b7160e01b600052601160045260246000fd5b634e487b7160e01b600052604160045260246000fdfea2646970667358221220b081cefd01e71f258286d1bd337d3f41bbb95e4788cb932ba7cca3f702457d5a64736f6c63430008060033",
  "linkReferences": {},
  "deployedLinkReferences": {}
}