{
  "_format": "hh-sol-artifact-1",
  "contractName": "AddressToTokenMap",
  "sourceName": "contracts/AddressToTokenMap.sol",
  "abi": [
    {
      "inputs": [],
      "stateMutability": "nonpayable",
      "type": "constructor"
    },
    {
      "inputs": [
        {
          "internalType": "address",
          "name": "_key",
          "type": "address"
        },
        {
          "internalType": "string",
          "name": "_value",
          "type": "string"
        }
      ],
      "name": "_setAddress",
      "outputs": [],
      "stateMutability": "nonpayable",
      "type": "function"
    },
    {
      "inputs": [
        {
          "internalType": "address",
          "name": "_tokenAddress",
          "type": "address"
        },
        {
          "internalType": "address",
          "name": "_pairAddress",
          "type": "address"
        }
      ],
      "name": "_setPriceFeedMap",
      "outputs": [],
      "stateMutability": "nonpayable",
      "type": "function"
    },
    {
      "inputs": [
        {
          "internalType": "address",
          "name": "_tokenAddress",
          "type": "address"
        }
      ],
      "name": "getPriceFeedMap",
      "outputs": [
        {
          "internalType": "address",
          "name": "",
          "type": "address"
        }
      ],
      "stateMutability": "view",
      "type": "function"
    },
    {
      "inputs": [
        {
          "internalType": "address",
          "name": "_key",
          "type": "address"
        }
      ],
      "name": "getSymbol",
      "outputs": [
        {
          "internalType": "string",
          "name": "",
          "type": "string"
        }
      ],
      "stateMutability": "view",
      "type": "function"
    },
    {
      "inputs": [
        {
          "internalType": "address",
          "name": "_token",
          "type": "address"
        }
      ],
      "name": "isETH",
      "outputs": [
        {
          "internalType": "bool",
          "name": "",
          "type": "bool"
        }
      ],
      "stateMutability": "view",
      "type": "function"
    }
  ],
  "bytecode": "0x608060405234801561001057600080fd5b50600080546001600160a01b031916331790556107bc806100326000396000f3fe608060405234801561001057600080fd5b50600436106100575760003560e01c8063281d6ea91461005c57806338f6d543146100a557806378c2cc51146100ba578063c9b2e522146100cd578063f70a2508146100ed575b600080fd5b61008861006a366004610564565b6001600160a01b039081166000908152600260205260409020541690565b6040516001600160a01b0390911681526020015b60405180910390f35b6100b86100b33660046105b9565b610110565b005b6100b86100c8366004610586565b6102f0565b6100e06100db366004610564565b6103a1565b60405161009c9190610697565b6101006100fb366004610564565b61044d565b604051901515815260200161009c565b6000546001600160a01b0316331461016f5760405162461bcd60e51b815260206004820152601d60248201527f4e6f74204f776e65722c2063616e6e6f7420616464206d617070696e6700000060448201526064015b60405180910390fd5b6001600160a01b0382166000908152600160205260408120805483929190610196906106f6565b80601f01602080910402602001604051908101604052809291908181526020018280546101c2906106f6565b801561020f5780601f106101e45761010080835404028352916020019161020f565b820191906000526020600020905b8154815290600101906020018083116101f257829003601f168201915b50505050509050805182511461024e576001600160a01b03841660009081526001602090815260409091208451610248928601906104af565b506102ea565b60005b82518110156102e85781818151811061026c5761026c61075a565b602001015160f81c60f81b6001600160f81b0319168382815181106102935761029361075a565b01602001516001600160f81b031916146102d6576001600160a01b038516600090815260016020908152604090912085516102d0928701906104af565b506102e8565b806102e081610731565b915050610251565b505b50505050565b6000546001600160a01b0316331461034a5760405162461bcd60e51b815260206004820152601d60248201527f4e6f74204f776e65722c2063616e6e6f7420616464206d617070696e670000006044820152606401610166565b6001600160a01b0382811660009081526002602052604090205481169082161461039d576001600160a01b03828116600090815260026020526040902080546001600160a01b0319169183169190911790555b5050565b6001600160a01b03811660009081526001602052604090208054606091906103c8906106f6565b80601f01602080910402602001604051908101604052809291908181526020018280546103f4906106f6565b80156104415780601f1061041657610100808354040283529160200191610441565b820191906000526020600020905b81548152906001019060200180831161042457829003601f168201915b50505050509050919050565b6040516208aa8960eb1b602082015260009060230160405160208183030381529060405280519060200120610481836103a1565b604051602001610491919061067b565b60405160208183030381529060405280519060200120149050919050565b8280546104bb906106f6565b90600052602060002090601f0160209004810192826104dd5760008555610523565b82601f106104f657805160ff1916838001178555610523565b82800160010185558215610523579182015b82811115610523578251825591602001919060010190610508565b5061052f929150610533565b5090565b5b8082111561052f5760008155600101610534565b80356001600160a01b038116811461055f57600080fd5b919050565b60006020828403121561057657600080fd5b61057f82610548565b9392505050565b6000806040838503121561059957600080fd5b6105a283610548565b91506105b060208401610548565b90509250929050565b600080604083850312156105cc57600080fd5b6105d583610548565b9150602083013567ffffffffffffffff808211156105f257600080fd5b818501915085601f83011261060657600080fd5b81358181111561061857610618610770565b604051601f8201601f19908116603f0116810190838211818310171561064057610640610770565b8160405282815288602084870101111561065957600080fd5b8260208601602083013760006020848301015280955050505050509250929050565b6000825161068d8184602087016106ca565b9190910192915050565b60208152600082518060208401526106b68160408501602087016106ca565b601f01601f19169190910160400192915050565b60005b838110156106e55781810151838201526020016106cd565b838111156102ea5750506000910152565b600181811c9082168061070a57607f821691505b6020821081141561072b57634e487b7160e01b600052602260045260246000fd5b50919050565b600060001982141561075357634e487b7160e01b600052601160045260246000fd5b5060010190565b634e487b7160e01b600052603260045260246000fd5b634e487b7160e01b600052604160045260246000fdfea2646970667358221220c7d97cc978f23ce0d0f78f9749d12fe52b30396c84a35ce93cf58e5ab76b8dcf64736f6c63430008060033",
  "linkReferences": {},
  "deployedLinkReferences": {}
}